{
  "contractName": "Storage",
  "abi": [
    {
      "anonymous": false,
      "inputs": [
        {
          "indexed": false,
          "internalType": "string",
          "name": "_msg",
          "type": "string"
        },
        {
          "indexed": false,
          "internalType": "address",
          "name": "_address1",
          "type": "address"
        },
        {
          "indexed": false,
          "internalType": "address",
          "name": "_address2",
          "type": "address"
        },
        {
          "indexed": false,
          "internalType": "uint256",
          "name": "_jackpot",
          "type": "uint256"
        }
      ],
      "name": "Tie",
      "type": "event"
    },
    {
      "anonymous": false,
      "inputs": [
        {
          "indexed": false,
          "internalType": "string",
          "name": "_player",
          "type": "string"
        },
        {
          "indexed": false,
          "internalType": "address",
          "name": "_address",
          "type": "address"
        },
        {
          "indexed": false,
          "internalType": "uint256",
          "name": "_jackpot",
          "type": "uint256"
        }
      ],
      "name": "Win",
      "type": "event"
    },
    {
      "inputs": [],
      "name": "player1",
      "outputs": [
        {
          "internalType": "address payable",
          "name": "",
          "type": "address"
        }
      ],
      "stateMutability": "view",
      "type": "function"
    },
    {
      "inputs": [],
      "name": "player2",
      "outputs": [
        {
          "internalType": "address payable",
          "name": "",
          "type": "address"
        }
      ],
      "stateMutability": "view",
      "type": "function"
    },
    {
      "inputs": [],
      "name": "startPlyingAsX",
      "outputs": [],
      "stateMutability": "payable",
      "type": "function"
    },
    {
      "inputs": [],
      "name": "startPlyingAsO",
      "outputs": [],
      "stateMutability": "payable",
      "type": "function"
    },
    {
      "inputs": [
        {
          "internalType": "uint256",
          "name": "id",
          "type": "uint256"
        }
      ],
      "name": "move",
      "outputs": [],
      "stateMutability": "nonpayable",
      "type": "function"
    },
    {
      "inputs": [],
      "name": "checkState",
      "outputs": [],
      "stateMutability": "payable",
      "type": "function"
    },
    {
      "inputs": [],
      "name": "getBoard",
      "outputs": [
        {
          "internalType": "uint256[9]",
          "name": "",
          "type": "uint256[9]"
        }
      ],
      "stateMutability": "view",
      "type": "function"
    },
    {
      "inputs": [],
      "name": "checkJackpot",
      "outputs": [
        {
          "internalType": "uint256",
          "name": "",
          "type": "uint256"
        }
      ],
      "stateMutability": "view",
      "type": "function"
    }
  ],
  "bytecode": "0x60806040526000600c5534801561001557600080fd5b5061176f806100256000396000f3fe60806040526004361061007b5760003560e01c806364a014171161004e57806364a014171461010b57806387cb15f71461011557806396dfcbea1461013e578063d30895e4146101485761007b565b80630f29ce42146100805780633264a34b146100ab5780633fdc8585146100d657806359a5f12d146100e0575b600080fd5b34801561008c57600080fd5b50610095610173565b6040516100a291906113b1565b60405180910390f35b3480156100b757600080fd5b506100c061017b565b6040516100cd91906111f3565b60405180910390f35b6100de6101c6565b005b3480156100ec57600080fd5b506100f5610373565b60405161010291906111d8565b60405180910390f35b610113610399565b005b34801561012157600080fd5b5061013c60048036038101906101379190610fa2565b610547565b005b610146610852565b005b34801561015457600080fd5b5061015d610f46565b60405161016a91906111d8565b60405180910390f35b600047905090565b610183610f6a565b60026009806020026040519081016040528092919082600980156101bc576020028201915b8154815260200190600101908083116101a8575b5050505050905090565b3373ffffffffffffffffffffffffffffffffffffffff16600160009054906101000a900473ffffffffffffffffffffffffffffffffffffffff1673ffffffffffffffffffffffffffffffffffffffff161415610257576040517f08c379a000000000000000000000000000000000000000000000000000000000815260040161024e9061120f565b60405180910390fd5b600073ffffffffffffffffffffffffffffffffffffffff1660008054906101000a900473ffffffffffffffffffffffffffffffffffffffff1673ffffffffffffffffffffffffffffffffffffffff16146102e6576040517f08c379a00000000000000000000000000000000000000000000000000000000081526004016102dd9061128b565b60405180910390fd5b670de0b6b3a7640000341015610331576040517f08c379a00000000000000000000000000000000000000000000000000000000081526004016103289061126b565b60405180910390fd5b336000806101000a81548173ffffffffffffffffffffffffffffffffffffffff021916908373ffffffffffffffffffffffffffffffffffffffff160217905550565b600160009054906101000a900473ffffffffffffffffffffffffffffffffffffffff1681565b3373ffffffffffffffffffffffffffffffffffffffff1660008054906101000a900473ffffffffffffffffffffffffffffffffffffffff1673ffffffffffffffffffffffffffffffffffffffff161415610428576040517f08c379a000000000000000000000000000000000000000000000000000000000815260040161041f9061120f565b60405180910390fd5b600073ffffffffffffffffffffffffffffffffffffffff16600160009054906101000a900473ffffffffffffffffffffffffffffffffffffffff1673ffffffffffffffffffffffffffffffffffffffff16146104b9576040517f08c379a00000000000000000000000000000000000000000000000000000000081526004016104b09061128b565b60405180910390fd5b670de0b6b3a7640000341015610504576040517f08c379a00000000000000000000000000000000000000000000000000000000081526004016104fb9061126b565b60405180910390fd5b33600160006101000a81548173ffffffffffffffffffffffffffffffffffffffff021916908373ffffffffffffffffffffffffffffffffffffffff160217905550565b600073ffffffffffffffffffffffffffffffffffffffff1660008054906101000a900473ffffffffffffffffffffffffffffffffffffffff1673ffffffffffffffffffffffffffffffffffffffff16141580156105f35750600073ffffffffffffffffffffffffffffffffffffffff16600160009054906101000a900473ffffffffffffffffffffffffffffffffffffffff1673ffffffffffffffffffffffffffffffffffffffff1614155b610632576040517f08c379a0000000000000000000000000000000000000000000000000000000008152600401610629906112e7565b60405180910390fd5b60098110610675576040517f08c379a000000000000000000000000000000000000000000000000000000000815260040161066c90611307565b60405180910390fd5b60001515600b60009054906101000a900460ff16151514156107245760008054906101000a900473ffffffffffffffffffffffffffffffffffffffff1673ffffffffffffffffffffffffffffffffffffffff163373ffffffffffffffffffffffffffffffffffffffff161461071f576040517f08c379a000000000000000000000000000000000000000000000000000000000815260040161071690611327565b60405180910390fd5b6107b5565b600160009054906101000a900473ffffffffffffffffffffffffffffffffffffffff1673ffffffffffffffffffffffffffffffffffffffff163373ffffffffffffffffffffffffffffffffffffffff16146107b4576040517f08c379a00000000000000000000000000000000000000000000000000000000081526004016107ab90611347565b60405180910390fd5b5b6000600282600981106107cb576107ca611554565b5b01541461080d576040517f08c379a00000000000000000000000000000000000000000000000000000000081526004016108049061128b565b60405180910390fd5b600b60009054906101000a900460ff1661082857600161082b565b60025b60ff166002826009811061084257610841611554565b5b018190555061084f610852565b50565b6000600b60009054906101000a900460ff1661086f576001610872565b60025b60ff169050600b60009054906101000a900460ff1615600b60006101000a81548160ff02191690831515021790555060008160026000600981106108b9576108b8611554565b5b01541480156108dd57508160026001600981106108d9576108d8611554565b5b0154145b80156108fd575081600280600981106108f9576108f8611554565b5b0154145b1561090b5760019050610beb565b81600260036009811061092157610920611554565b5b0154148015610945575081600260046009811061094157610940611554565b5b0154145b8015610966575081600260056009811061096257610961611554565b5b0154145b156109745760019050610bea565b81600260066009811061098a57610989611554565b5b01541480156109ae57508160026007600981106109aa576109a9611554565b5b0154145b80156109cf57508160026008600981106109cb576109ca611554565b5b0154145b156109dd5760019050610be9565b8160026000600981106109f3576109f2611554565b5b0154148015610a175750816002600360098110610a1357610a12611554565b5b0154145b8015610a385750816002600660098110610a3457610a33611554565b5b0154145b15610a465760019050610be8565b816002600160098110610a5c57610a5b611554565b5b0154148015610a805750816002600460098110610a7c57610a7b611554565b5b0154145b8015610aa15750816002600760098110610a9d57610a9c611554565b5b0154145b15610aaf5760019050610be7565b8160028060098110610ac457610ac3611554565b5b0154148015610ae85750816002600560098110610ae457610ae3611554565b5b0154145b8015610b095750816002600860098110610b0557610b04611554565b5b0154145b15610b175760019050610be6565b816002600060098110610b2d57610b2c611554565b5b0154148015610b515750816002600460098110610b4d57610b4c611554565b5b0154145b8015610b725750816002600860098110610b6e57610b6d611554565b5b0154145b15610b805760019050610be5565b8160028060098110610b9557610b94611554565b5b0154148015610bb95750816002600460098110610bb557610bb4611554565b5b0154145b8015610bda5750816002600660098110610bd657610bd5611554565b5b0154145b15610be457600190505b5b5b5b5b5b5b5b8015610d8a576001821415610cbb577fa996d4e6cc3cdd6c55ad76a58d72b9c530859d68702e745f1a995b84f4feb8a160008054906101000a900473ffffffffffffffffffffffffffffffffffffffff1647604051610c4b92919061122f565b60405180910390a160008054906101000a900473ffffffffffffffffffffffffffffffffffffffff1673ffffffffffffffffffffffffffffffffffffffff166108fc479081150290604051600060405180830381858888f19350505050158015610cb9573d6000803e3d6000fd5b505b6002821415610d89577fa996d4e6cc3cdd6c55ad76a58d72b9c530859d68702e745f1a995b84f4feb8a1600160009054906101000a900473ffffffffffffffffffffffffffffffffffffffff1647604051610d179291906112ab565b60405180910390a1600160009054906101000a900473ffffffffffffffffffffffffffffffffffffffff1673ffffffffffffffffffffffffffffffffffffffff166108fc479081150290604051600060405180830381858888f19350505050158015610d87573d6000803e3d6000fd5b505b5b600015158115151415610f425760006001905060005b6009811015610ddf57600060028260098110610dbf57610dbe611554565b5b01541415610dcc57600091505b8080610dd7906114ad565b915050610da0565b508015610f40577f23351672f9296915f0bc3d35b3f5f5e8d3584255ce7a968eee89a2ca8c8904d260008054906101000a900473ffffffffffffffffffffffffffffffffffffffff16600160009054906101000a900473ffffffffffffffffffffffffffffffffffffffff1647604051610e5b93929190611367565b60405180910390a160008054906101000a900473ffffffffffffffffffffffffffffffffffffffff1673ffffffffffffffffffffffffffffffffffffffff166108fc600247610eaa919061140a565b9081150290604051600060405180830381858888f19350505050158015610ed5573d6000803e3d6000fd5b50600160009054906101000a900473ffffffffffffffffffffffffffffffffffffffff1673ffffffffffffffffffffffffffffffffffffffff166108fc479081150290604051600060405180830381858888f19350505050158015610f3e573d6000803e3d6000fd5b505b505b5050565b60008054906101000a900473ffffffffffffffffffffffffffffffffffffffff1681565b604051806101200160405280600990602082028036833780820191505090505090565b600081359050610f9c81611722565b92915050565b600060208284031215610fb857610fb7611583565b5b6000610fc684828501610f8d565b91505092915050565b6000610fdb83836111ba565b60208301905092915050565b610ff081611477565b82525050565b610fff8161143b565b82525050565b61100e816113d6565b61101881846113ee565b9250611023826113cc565b8060005b8381101561105457815161103b8782610fcf565b9650611046836113e1565b925050600181019050611027565b505050505050565b60006110696012836113f9565b915061107482611588565b602082019050919050565b600061108c6010836113f9565b9150611097826115b1565b602082019050919050565b60006110af6015836113f9565b91506110ba826115da565b602082019050919050565b60006110d2600e836113f9565b91506110dd82611603565b602082019050919050565b60006110f56010836113f9565b91506111008261162c565b602082019050919050565b60006111186019836113f9565b915061112382611655565b602082019050919050565b600061113b600c836113f9565b91506111468261167e565b602082019050919050565b600061115e6016836113f9565b9150611169826116a7565b602082019050919050565b60006111816016836113f9565b915061118c826116d0565b602082019050919050565b60006111a4600b836113f9565b91506111af826116f9565b602082019050919050565b6111c38161146d565b82525050565b6111d28161146d565b82525050565b60006020820190506111ed6000830184610ff6565b92915050565b6000610120820190506112096000830184611005565b92915050565b600060208201905081810360008301526112288161105c565b9050919050565b600060608201905081810360008301526112488161107f565b90506112576020830185610fe7565b61126460408301846111c9565b9392505050565b60006020820190508181036000830152611284816110a2565b9050919050565b600060208201905081810360008301526112a4816110c5565b9050919050565b600060608201905081810360008301526112c4816110e8565b90506112d36020830185610fe7565b6112e060408301846111c9565b9392505050565b600060208201905081810360008301526113008161110b565b9050919050565b600060208201905081810360008301526113208161112e565b9050919050565b6000602082019050818103600083015261134081611151565b9050919050565b6000602082019050818103600083015261136081611174565b9050919050565b6000608082019050818103600083015261138081611197565b905061138f6020830186610fe7565b61139c6040830185610fe7565b6113a960608301846111c9565b949350505050565b60006020820190506113c660008301846111c9565b92915050565b6000819050919050565b600060099050919050565b6000602082019050919050565b600081905092915050565b600082825260208201905092915050565b60006114158261146d565b91506114208361146d565b9250826114305761142f611525565b5b828204905092915050565b60006114468261144d565b9050919050565b600073ffffffffffffffffffffffffffffffffffffffff82169050919050565b6000819050919050565b600061148282611489565b9050919050565b60006114948261149b565b9050919050565b60006114a68261144d565b9050919050565b60006114b88261146d565b91507fffffffffffffffffffffffffffffffffffffffffffffffffffffffffffffffff8214156114eb576114ea6114f6565b5b600182019050919050565b7f4e487b7100000000000000000000000000000000000000000000000000000000600052601160045260246000fd5b7f4e487b7100000000000000000000000000000000000000000000000000000000600052601260045260246000fd5b7f4e487b7100000000000000000000000000000000000000000000000000000000600052603260045260246000fd5b600080fd5b7f63616e277420706c617920617320626f74680000000000000000000000000000600082015250565b7f506c6179657220312028582920576f6e00000000000000000000000000000000600082015250565b7f626574206d757374206265203e3d312065746865720000000000000000000000600082015250565b7f706f736974696f6e2074616b656e000000000000000000000000000000000000600082015250565b7f506c61796572203220284f2920576f6e00000000000000000000000000000000600082015250565b7f6e65656420626f746820706c617965727320746f20706c617900000000000000600082015250565b7f62616420706f736974696f6e0000000000000000000000000000000000000000600082015250565b7f796f75277265206e6f7420706c61796572312028582900000000000000000000600082015250565b7f796f75277265206e6f7420706c617965723220284f2900000000000000000000600082015250565b7f47616d6520697320546965000000000000000000000000000000000000000000600082015250565b61172b8161146d565b811461173657600080fd5b5056fea2646970667358221220307e8c099e84f6b9adbb9844e37f04bb091d2930bca9e90f0667a57e7802c92b64736f6c63430008070033",
  "immutableReferences": {},
  "source": "// SPDX-License-Identifier: MIT\r\npragma solidity >=0.7 <0.9.0;\r\n\r\ncontract Storage {\r\n\r\n    event Win(string _player, address _address, uint256 _jackpot);\r\n    event Tie(string _msg, address _address1, address _address2, uint256 _jackpot);\r\n\r\n    address payable public player1;\r\n    address payable public player2;\r\n\r\n    uint256[9] board; // 0 - top left, order is like reading a book.\r\n    bool turn; // true - O, false - X\r\n\r\n    uint256 playerCount=0;\r\n\r\n    function startPlyingAsX() external payable {\r\n\r\n        require(player2 != msg.sender, \"can't play as both\");\r\n        require(player1 == address(0), \"position taken\");\r\n        require(msg.value >= 1 ether, \"bet must be >=1 ether\");\r\n        player1 = payable( msg.sender);\r\n\r\n    }\r\n    function startPlyingAsO() external payable {\r\n\r\n        require(player1 != msg.sender, \"can't play as both\");\r\n        require(player2 == address(0), \"position taken\");\r\n        require(msg.value >= 1 ether, \"bet must be >=1 ether\");\r\n        player2 = payable(msg.sender);\r\n    }\r\n\r\n    function move(uint256 id) external\r\n    {   \r\n        require(player1 != address(0) && player2 != address(0),\"need both players to play\");\r\n        require(id<9, \"bad position\");\r\n        if(turn==false)\r\n        {\r\n            require(msg.sender==player1, \"you're not player1 (X)\");\r\n        }\r\n        else\r\n        {\r\n            require(msg.sender==player2, \"you're not player2 (O)\");\r\n        }\r\n\r\n        require(board[id] == 0, \"position taken\");\r\n\r\n        board[id] = turn?2:1; // player2 - 2, player1 - 1;\r\n\r\n        checkState();\r\n    }\r\n    function checkState() public payable\r\n    {\r\n        \r\n        // check for winner\r\n        uint256 t = turn?2:1;\r\n        turn = ! turn;\r\n        bool winner = false;\r\n\r\n        if(board[0]==t &&board[1]==t&&board[2]==t)\r\n        {\r\n            winner = true;\r\n        }\r\n        else if(board[3]==t &&board[4]==t&&board[5]==t)\r\n        {\r\n            winner = true;\r\n        }\r\n        else if(board[6]==t &&board[7]==t&&board[8]==t)\r\n        {\r\n            winner = true;\r\n        }\r\n        else if(board[0]==t &&board[3]==t&&board[6]==t)\r\n        {\r\n            winner = true;\r\n        }\r\n        else if(board[1]==t &&board[4]==t&&board[7]==t)\r\n        {\r\n            winner = true;\r\n        }\r\n        else if(board[2]==t &&board[5]==t&&board[8]==t)\r\n        {\r\n            winner = true;\r\n        }\r\n        else if(board[0]==t &&board[4]==t&&board[8]==t)\r\n        {\r\n            winner = true;\r\n        }\r\n        else if(board[2]==t &&board[4]==t&&board[6]==t)\r\n        {\r\n            winner = true;\r\n        }\r\n\r\n        if(winner)\r\n        {\r\n            if(t==1)\r\n            {\r\n                emit Win(\"Player 1 (X) Won\",player1,address(this).balance);\r\n                player1.transfer(address(this).balance);\r\n            }\r\n            if(t==2)\r\n            {\r\n                emit Win(\"Player 2 (O) Won\",player2,address(this).balance);\r\n                player2.transfer(address(this).balance);\r\n            }\r\n        }\r\n\r\n        if(winner==false)\r\n        {\r\n            // tie\r\n            bool isTie = true;\r\n            for(uint256 i = 0;i<9;i++)\r\n            {\r\n                if(board[i]==0)\r\n                {\r\n                    isTie = false;\r\n                }\r\n            }\r\n            \r\n            // payout\r\n            if(isTie)\r\n            {\r\n                emit Tie(\"Game is Tie\", player1,player2,address(this).balance);\r\n                player1.transfer(address(this).balance/2);\r\n                player2.transfer(address(this).balance);\r\n            }\r\n        }\r\n\r\n    }\r\n\r\n    function getBoard() external view returns (uint256 [9] memory){\r\n        return board;\r\n    }\r\n\r\n    function checkJackpot() external view returns(uint256){\r\n        return address(this).balance;\r\n    }\r\n\r\n}",
  "sourcePath": "C:\\Users\\Legend\\Desktop\\Life\\Unikas\\2metai 1semestras\\BlockChain\\github\\Ether\\contracts\\TicTacToe.sol",
  "compiler": {
    "name": "solc",
    "version": "0.8.7+commit.e28d00a7.Emscripten.clang"
  },
  "schemaVersion": "3.4.3",
  "updatedAt": "2021-12-14T13:25:32.611Z",
  "devdoc": {
    "kind": "dev",
    "methods": {},
    "version": 1
  },
  "userdoc": {
    "kind": "user",
    "methods": {},
    "version": 1
  }
}