{
  "contractName": "TicTacToe",
  "abi": [
    {
      "anonymous": false,
      "inputs": [
        {
          "indexed": false,
          "internalType": "string",
          "name": "_msg",
          "type": "string"
        },
        {
          "indexed": false,
          "internalType": "address",
          "name": "_address1",
          "type": "address"
        },
        {
          "indexed": false,
          "internalType": "address",
          "name": "_address2",
          "type": "address"
        },
        {
          "indexed": false,
          "internalType": "uint256",
          "name": "_jackpot",
          "type": "uint256"
        }
      ],
      "name": "Tie",
      "type": "event"
    },
    {
      "anonymous": false,
      "inputs": [
        {
          "indexed": false,
          "internalType": "string",
          "name": "_player",
          "type": "string"
        },
        {
          "indexed": false,
          "internalType": "address",
          "name": "_address",
          "type": "address"
        },
        {
          "indexed": false,
          "internalType": "uint256",
          "name": "_jackpot",
          "type": "uint256"
        }
      ],
      "name": "Win",
      "type": "event"
    },
    {
      "inputs": [],
      "name": "blockNumOld",
      "outputs": [
        {
          "internalType": "uint256",
          "name": "",
          "type": "uint256"
        }
      ],
      "stateMutability": "view",
      "type": "function",
      "constant": true
    },
    {
      "inputs": [],
      "name": "player1",
      "outputs": [
        {
          "internalType": "address payable",
          "name": "",
          "type": "address"
        }
      ],
      "stateMutability": "view",
      "type": "function",
      "constant": true
    },
    {
      "inputs": [],
      "name": "player2",
      "outputs": [
        {
          "internalType": "address payable",
          "name": "",
          "type": "address"
        }
      ],
      "stateMutability": "view",
      "type": "function",
      "constant": true
    },
    {
      "inputs": [],
      "name": "startPlayingAsX",
      "outputs": [],
      "stateMutability": "payable",
      "type": "function",
      "payable": true
    },
    {
      "inputs": [],
      "name": "startPlayingAsO",
      "outputs": [],
      "stateMutability": "payable",
      "type": "function",
      "payable": true
    },
    {
      "inputs": [
        {
          "internalType": "uint256",
          "name": "id",
          "type": "uint256"
        }
      ],
      "name": "move",
      "outputs": [],
      "stateMutability": "nonpayable",
      "type": "function"
    },
    {
      "inputs": [],
      "name": "checkState",
      "outputs": [],
      "stateMutability": "payable",
      "type": "function",
      "payable": true
    },
    {
      "inputs": [],
      "name": "escape",
      "outputs": [],
      "stateMutability": "payable",
      "type": "function",
      "payable": true
    },
    {
      "inputs": [],
      "name": "getBoard",
      "outputs": [
        {
          "internalType": "uint256[9]",
          "name": "",
          "type": "uint256[9]"
        }
      ],
      "stateMutability": "view",
      "type": "function",
      "constant": true
    },
    {
      "inputs": [],
      "name": "checkJackpot",
      "outputs": [
        {
          "internalType": "uint256",
          "name": "",
          "type": "uint256"
        }
      ],
      "stateMutability": "view",
      "type": "function",
      "constant": true
    }
  ],
  "bytecode": "0x608060405243600c5534801561001457600080fd5b5061207e806100246000396000f3fe6080604052600436106100915760003560e01c806387cb15f71161005957806387cb15f71461014c57806396dfcbea14610175578063d180667d1461017f578063d30895e414610189578063f51b4baa146101b457610091565b80630f29ce42146100965780633264a34b146100c15780633ca19835146100ec57806359a5f12d146100f65780637316ce9914610121575b600080fd5b3480156100a257600080fd5b506100ab6101be565b6040516100b89190611c18565b60405180910390f35b3480156100cd57600080fd5b506100d66101c6565b6040516100e39190611a1a565b60405180910390f35b6100f4610211565b005b34801561010257600080fd5b5061010b6103be565b60405161011891906119ff565b60405180910390f35b34801561012d57600080fd5b506101366103e4565b6040516101439190611c18565b60405180910390f35b34801561015857600080fd5b50610173600480360381019061016e9190611783565b6103ea565b005b61017d6106fc565b005b610187610fa2565b005b34801561019557600080fd5b5061019e611579565b6040516101ab91906119ff565b60405180910390f35b6101bc61159d565b005b600047905090565b6101ce61174b565b6002600980602002604051908101604052809291908260098015610207576020028201915b8154815260200190600101908083116101f3575b5050505050905090565b3373ffffffffffffffffffffffffffffffffffffffff16600160009054906101000a900473ffffffffffffffffffffffffffffffffffffffff1673ffffffffffffffffffffffffffffffffffffffff1614156102a2576040517f08c379a000000000000000000000000000000000000000000000000000000000815260040161029990611a36565b60405180910390fd5b600073ffffffffffffffffffffffffffffffffffffffff1660008054906101000a900473ffffffffffffffffffffffffffffffffffffffff1673ffffffffffffffffffffffffffffffffffffffff1614610331576040517f08c379a000000000000000000000000000000000000000000000000000000000815260040161032890611ab2565b60405180910390fd5b670de0b6b3a764000034101561037c576040517f08c379a000000000000000000000000000000000000000000000000000000000815260040161037390611a92565b60405180910390fd5b336000806101000a81548173ffffffffffffffffffffffffffffffffffffffff021916908373ffffffffffffffffffffffffffffffffffffffff160217905550565b600160009054906101000a900473ffffffffffffffffffffffffffffffffffffffff1681565b600c5481565b600073ffffffffffffffffffffffffffffffffffffffff1660008054906101000a900473ffffffffffffffffffffffffffffffffffffffff1673ffffffffffffffffffffffffffffffffffffffff16141580156104965750600073ffffffffffffffffffffffffffffffffffffffff16600160009054906101000a900473ffffffffffffffffffffffffffffffffffffffff1673ffffffffffffffffffffffffffffffffffffffff1614155b6104d5576040517f08c379a00000000000000000000000000000000000000000000000000000000081526004016104cc90611b0e565b60405180910390fd5b60098110610518576040517f08c379a000000000000000000000000000000000000000000000000000000000815260040161050f90611b2e565b60405180910390fd5b60001515600b60009054906101000a900460ff16151514156105c75760008054906101000a900473ffffffffffffffffffffffffffffffffffffffff1673ffffffffffffffffffffffffffffffffffffffff163373ffffffffffffffffffffffffffffffffffffffff16146105c2576040517f08c379a00000000000000000000000000000000000000000000000000000000081526004016105b990611b4e565b60405180910390fd5b610658565b600160009054906101000a900473ffffffffffffffffffffffffffffffffffffffff1673ffffffffffffffffffffffffffffffffffffffff163373ffffffffffffffffffffffffffffffffffffffff1614610657576040517f08c379a000000000000000000000000000000000000000000000000000000000815260040161064e90611b8e565b60405180910390fd5b5b60006002826009811061066e5761066d611e11565b5b0154146106b0576040517f08c379a00000000000000000000000000000000000000000000000000000000081526004016106a790611ab2565b60405180910390fd5b600b60009054906101000a900460ff166106cb5760016106ce565b60025b60ff16600282600981106106e5576106e4611e11565b5b018190555043600c819055506106f96106fc565b50565b6000600b60009054906101000a900460ff1661071957600161071c565b60025b60ff169050600b60009054906101000a900460ff1615600b60006101000a81548160ff021916908315150217905550600081600260006009811061076357610762611e11565b5b0154148015610787575081600260016009811061078357610782611e11565b5b0154145b80156107a7575081600280600981106107a3576107a2611e11565b5b0154145b156107b55760019050610a95565b8160026003600981106107cb576107ca611e11565b5b01541480156107ef57508160026004600981106107eb576107ea611e11565b5b0154145b8015610810575081600260056009811061080c5761080b611e11565b5b0154145b1561081e5760019050610a94565b81600260066009811061083457610833611e11565b5b0154148015610858575081600260076009811061085457610853611e11565b5b0154145b8015610879575081600260086009811061087557610874611e11565b5b0154145b156108875760019050610a93565b81600260006009811061089d5761089c611e11565b5b01541480156108c157508160026003600981106108bd576108bc611e11565b5b0154145b80156108e257508160026006600981106108de576108dd611e11565b5b0154145b156108f05760019050610a92565b81600260016009811061090657610905611e11565b5b015414801561092a575081600260046009811061092657610925611e11565b5b0154145b801561094b575081600260076009811061094757610946611e11565b5b0154145b156109595760019050610a91565b816002806009811061096e5761096d611e11565b5b0154148015610992575081600260056009811061098e5761098d611e11565b5b0154145b80156109b357508160026008600981106109af576109ae611e11565b5b0154145b156109c15760019050610a90565b8160026000600981106109d7576109d6611e11565b5b01541480156109fb57508160026004600981106109f7576109f6611e11565b5b0154145b8015610a1c5750816002600860098110610a1857610a17611e11565b5b0154145b15610a2a5760019050610a8f565b8160028060098110610a3f57610a3e611e11565b5b0154148015610a635750816002600460098110610a5f57610a5e611e11565b5b0154145b8015610a845750816002600660098110610a8057610a7f611e11565b5b0154145b15610a8e57600190505b5b5b5b5b5b5b5b8015610d0d576001821415610b65577fa996d4e6cc3cdd6c55ad76a58d72b9c530859d68702e745f1a995b84f4feb8a160008054906101000a900473ffffffffffffffffffffffffffffffffffffffff1647604051610af5929190611a56565b60405180910390a160008054906101000a900473ffffffffffffffffffffffffffffffffffffffff1673ffffffffffffffffffffffffffffffffffffffff166108fc479081150290604051600060405180830381858888f19350505050158015610b63573d6000803e3d6000fd5b505b6002821415610c33577fa996d4e6cc3cdd6c55ad76a58d72b9c530859d68702e745f1a995b84f4feb8a1600160009054906101000a900473ffffffffffffffffffffffffffffffffffffffff1647604051610bc1929190611ad2565b60405180910390a1600160009054906101000a900473ffffffffffffffffffffffffffffffffffffffff1673ffffffffffffffffffffffffffffffffffffffff166108fc479081150290604051600060405180830381858888f19350505050158015610c31573d6000803e3d6000fd5b505b60008060006101000a81548173ffffffffffffffffffffffffffffffffffffffff021916908373ffffffffffffffffffffffffffffffffffffffff1602179055506000600160006101000a81548173ffffffffffffffffffffffffffffffffffffffff021916908373ffffffffffffffffffffffffffffffffffffffff1602179055506000600b60006101000a81548160ff02191690831515021790555060005b6009811015610d0b57600060028260098110610cf357610cf2611e11565b5b01819055508080610d0390611d6a565b915050610cd4565b505b600015158115151415610f9e5760006001905060005b6009811015610d6257600060028260098110610d4257610d41611e11565b5b01541415610d4f57600091505b8080610d5a90611d6a565b915050610d23565b508015610f9c577f23351672f9296915f0bc3d35b3f5f5e8d3584255ce7a968eee89a2ca8c8904d260008054906101000a900473ffffffffffffffffffffffffffffffffffffffff16600160009054906101000a900473ffffffffffffffffffffffffffffffffffffffff1647604051610dde93929190611bae565b60405180910390a160008054906101000a900473ffffffffffffffffffffffffffffffffffffffff1673ffffffffffffffffffffffffffffffffffffffff166108fc600247610e2d9190611cc7565b9081150290604051600060405180830381858888f19350505050158015610e58573d6000803e3d6000fd5b50600160009054906101000a900473ffffffffffffffffffffffffffffffffffffffff1673ffffffffffffffffffffffffffffffffffffffff166108fc479081150290604051600060405180830381858888f19350505050158015610ec1573d6000803e3d6000fd5b5060008060006101000a81548173ffffffffffffffffffffffffffffffffffffffff021916908373ffffffffffffffffffffffffffffffffffffffff1602179055506000600160006101000a81548173ffffffffffffffffffffffffffffffffffffffff021916908373ffffffffffffffffffffffffffffffffffffffff1602179055506000600b60006101000a81548160ff02191690831515021790555060005b6009811015610f9a57600060028260098110610f8257610f81611e11565b5b01819055508080610f9290611d6a565b915050610f63565b505b505b5050565b6000808054906101000a900473ffffffffffffffffffffffffffffffffffffffff1673ffffffffffffffffffffffffffffffffffffffff163373ffffffffffffffffffffffffffffffffffffffff1614801561104c5750600073ffffffffffffffffffffffffffffffffffffffff16600160009054906101000a900473ffffffffffffffffffffffffffffffffffffffff1673ffffffffffffffffffffffffffffffffffffffff16145b1561115257600073ffffffffffffffffffffffffffffffffffffffff16600160009054906101000a900473ffffffffffffffffffffffffffffffffffffffff1673ffffffffffffffffffffffffffffffffffffffff16146110e2576040517f08c379a00000000000000000000000000000000000000000000000000000000081526004016110d990611b6e565b60405180910390fd5b60008054906101000a900473ffffffffffffffffffffffffffffffffffffffff1673ffffffffffffffffffffffffffffffffffffffff166108fc479081150290604051600060405180830381858888f19350505050158015611148573d6000803e3d6000fd5b5060019050611496565b600160009054906101000a900473ffffffffffffffffffffffffffffffffffffffff1673ffffffffffffffffffffffffffffffffffffffff163373ffffffffffffffffffffffffffffffffffffffff161480156111fb5750600073ffffffffffffffffffffffffffffffffffffffff1660008054906101000a900473ffffffffffffffffffffffffffffffffffffffff1673ffffffffffffffffffffffffffffffffffffffff16145b1561130157600073ffffffffffffffffffffffffffffffffffffffff1660008054906101000a900473ffffffffffffffffffffffffffffffffffffffff1673ffffffffffffffffffffffffffffffffffffffff161461128f576040517f08c379a000000000000000000000000000000000000000000000000000000000815260040161128690611b6e565b60405180910390fd5b600160009054906101000a900473ffffffffffffffffffffffffffffffffffffffff1673ffffffffffffffffffffffffffffffffffffffff166108fc479081150290604051600060405180830381858888f193505050501580156112f7573d6000803e3d6000fd5b5060019050611495565b600b60009054906101000a900460ff16156113d657436014600c546113269190611c71565b10611366576040517f08c379a000000000000000000000000000000000000000000000000000000000815260040161135d90611bf8565b60405180910390fd5b60008054906101000a900473ffffffffffffffffffffffffffffffffffffffff1673ffffffffffffffffffffffffffffffffffffffff166108fc479081150290604051600060405180830381858888f193505050501580156113cc573d6000803e3d6000fd5b5060019050611494565b436014600c546113e69190611c71565b10611426576040517f08c379a000000000000000000000000000000000000000000000000000000000815260040161141d90611bf8565b60405180910390fd5b600160009054906101000a900473ffffffffffffffffffffffffffffffffffffffff1673ffffffffffffffffffffffffffffffffffffffff166108fc479081150290604051600060405180830381858888f1935050505015801561148e573d6000803e3d6000fd5b50600190505b5b5b80156115765760008060006101000a81548173ffffffffffffffffffffffffffffffffffffffff021916908373ffffffffffffffffffffffffffffffffffffffff1602179055506000600160006101000a81548173ffffffffffffffffffffffffffffffffffffffff021916908373ffffffffffffffffffffffffffffffffffffffff1602179055506000600b60006101000a81548160ff02191690831515021790555060005b60098110156115745760006002826009811061155c5761155b611e11565b5b0181905550808061156c90611d6a565b91505061153d565b505b50565b60008054906101000a900473ffffffffffffffffffffffffffffffffffffffff1681565b3373ffffffffffffffffffffffffffffffffffffffff1660008054906101000a900473ffffffffffffffffffffffffffffffffffffffff1673ffffffffffffffffffffffffffffffffffffffff16141561162c576040517f08c379a000000000000000000000000000000000000000000000000000000000815260040161162390611a36565b60405180910390fd5b600073ffffffffffffffffffffffffffffffffffffffff16600160009054906101000a900473ffffffffffffffffffffffffffffffffffffffff1673ffffffffffffffffffffffffffffffffffffffff16146116bd576040517f08c379a00000000000000000000000000000000000000000000000000000000081526004016116b490611ab2565b60405180910390fd5b670de0b6b3a7640000341015611708576040517f08c379a00000000000000000000000000000000000000000000000000000000081526004016116ff90611a92565b60405180910390fd5b33600160006101000a81548173ffffffffffffffffffffffffffffffffffffffff021916908373ffffffffffffffffffffffffffffffffffffffff160217905550565b604051806101200160405280600990602082028036833780820191505090505090565b60008135905061177d81612031565b92915050565b60006020828403121561179957611798611e40565b5b60006117a78482850161176e565b91505092915050565b60006117bc83836119e1565b60208301905092915050565b6117d181611d34565b82525050565b6117e081611cf8565b82525050565b6117ef81611c3d565b6117f98184611c55565b925061180482611c33565b8060005b8381101561183557815161181c87826117b0565b965061182783611c48565b925050600181019050611808565b505050505050565b600061184a601283611c60565b915061185582611e45565b602082019050919050565b600061186d601083611c60565b915061187882611e6e565b602082019050919050565b6000611890601583611c60565b915061189b82611e97565b602082019050919050565b60006118b3600e83611c60565b91506118be82611ec0565b602082019050919050565b60006118d6601083611c60565b91506118e182611ee9565b602082019050919050565b60006118f9601983611c60565b915061190482611f12565b602082019050919050565b600061191c600c83611c60565b915061192782611f3b565b602082019050919050565b600061193f601683611c60565b915061194a82611f64565b602082019050919050565b6000611962600c83611c60565b915061196d82611f8d565b602082019050919050565b6000611985601683611c60565b915061199082611fb6565b602082019050919050565b60006119a8600b83611c60565b91506119b382611fdf565b602082019050919050565b60006119cb600983611c60565b91506119d682612008565b602082019050919050565b6119ea81611d2a565b82525050565b6119f981611d2a565b82525050565b6000602082019050611a1460008301846117d7565b92915050565b600061012082019050611a3060008301846117e6565b92915050565b60006020820190508181036000830152611a4f8161183d565b9050919050565b60006060820190508181036000830152611a6f81611860565b9050611a7e60208301856117c8565b611a8b60408301846119f0565b9392505050565b60006020820190508181036000830152611aab81611883565b9050919050565b60006020820190508181036000830152611acb816118a6565b9050919050565b60006060820190508181036000830152611aeb816118c9565b9050611afa60208301856117c8565b611b0760408301846119f0565b9392505050565b60006020820190508181036000830152611b27816118ec565b9050919050565b60006020820190508181036000830152611b478161190f565b9050919050565b60006020820190508181036000830152611b6781611932565b9050919050565b60006020820190508181036000830152611b8781611955565b9050919050565b60006020820190508181036000830152611ba781611978565b9050919050565b60006080820190508181036000830152611bc78161199b565b9050611bd660208301866117c8565b611be360408301856117c8565b611bf060608301846119f0565b949350505050565b60006020820190508181036000830152611c11816119be565b9050919050565b6000602082019050611c2d60008301846119f0565b92915050565b6000819050919050565b600060099050919050565b6000602082019050919050565b600081905092915050565b600082825260208201905092915050565b6000611c7c82611d2a565b9150611c8783611d2a565b9250827fffffffffffffffffffffffffffffffffffffffffffffffffffffffffffffffff03821115611cbc57611cbb611db3565b5b828201905092915050565b6000611cd282611d2a565b9150611cdd83611d2a565b925082611ced57611cec611de2565b5b828204905092915050565b6000611d0382611d0a565b9050919050565b600073ffffffffffffffffffffffffffffffffffffffff82169050919050565b6000819050919050565b6000611d3f82611d46565b9050919050565b6000611d5182611d58565b9050919050565b6000611d6382611d0a565b9050919050565b6000611d7582611d2a565b91507fffffffffffffffffffffffffffffffffffffffffffffffffffffffffffffffff821415611da857611da7611db3565b5b600182019050919050565b7f4e487b7100000000000000000000000000000000000000000000000000000000600052601160045260246000fd5b7f4e487b7100000000000000000000000000000000000000000000000000000000600052601260045260246000fd5b7f4e487b7100000000000000000000000000000000000000000000000000000000600052603260045260246000fd5b600080fd5b7f63616e277420706c617920617320626f74680000000000000000000000000000600082015250565b7f506c6179657220312028582920576f6e00000000000000000000000000000000600082015250565b7f626574206d757374206265203e3d312065746865720000000000000000000000600082015250565b7f706f736974696f6e2074616b656e000000000000000000000000000000000000600082015250565b7f506c61796572203220284f2920576f6e00000000000000000000000000000000600082015250565b7f6e65656420626f746820706c617965727320746f20706c617900000000000000600082015250565b7f62616420706f736974696f6e0000000000000000000000000000000000000000600082015250565b7f796f75277265206e6f7420706c61796572312028582900000000000000000000600082015250565b7f67616d6520737461727465640000000000000000000000000000000000000000600082015250565b7f796f75277265206e6f7420706c617965723220284f2900000000000000000000600082015250565b7f47616d6520697320546965000000000000000000000000000000000000000000600082015250565b7f746f6f206561726c790000000000000000000000000000000000000000000000600082015250565b61203a81611d2a565b811461204557600080fd5b5056fea2646970667358221220b662e5998588a8ac3d2ad47d588ddbda7c3b79ad3ad028895515600bdf33762664736f6c63430008070033",
  "immutableReferences": {},
  "source": "// SPDX-License-Identifier: GPL-3.0\r\npragma solidity >=0.7.0 <0.9.0;\r\n\r\ncontract TicTacToe {\r\n\r\n    event Win(string _player, address _address, uint256 _jackpot);\r\n    event Tie(string _msg, address _address1, address _address2, uint256 _jackpot);\r\n\r\n    address payable public player1; // X\r\n    address payable public player2; // O\r\n\r\n    uint256[9] board; // 0 - top left, order is like reading a book.\r\n    bool turn; // true - O, false - X\r\n\r\n    uint256 public blockNumOld = block.number;\r\n\r\n    function startPlayingAsX() external payable {\r\n\r\n        require(player2 != msg.sender, \"can't play as both\");\r\n        require(player1 == address(0), \"position taken\");\r\n        require(msg.value >= 1 ether, \"bet must be >=1 ether\");\r\n        player1 = payable( msg.sender);\r\n\r\n    }\r\n    function startPlayingAsO() external payable {\r\n        require(player1 != msg.sender, \"can't play as both\");\r\n        require(player2 == address(0), \"position taken\");\r\n        require(msg.value >= 1 ether, \"bet must be >=1 ether\");\r\n        player2 = payable(msg.sender);\r\n    }\r\n\r\n    function move(uint256 id) external\r\n    {   \r\n        require(player1 != address(0) && player2 != address(0),\"need both players to play\");\r\n        require(id<9, \"bad position\");\r\n        if(turn==false)\r\n        {\r\n            require(msg.sender==player1, \"you're not player1 (X)\");\r\n        }\r\n        else\r\n        {\r\n            require(msg.sender==player2, \"you're not player2 (O)\");\r\n        }\r\n\r\n        require(board[id] == 0, \"position taken\");\r\n\r\n        board[id] = turn?2:1; // player2 - 2, player1 - 1;\r\n        blockNumOld = block.number;\r\n        checkState();\r\n    }\r\n    function checkState() public payable\r\n    {\r\n        // check for winner\r\n        uint256 t = turn?2:1;\r\n        turn = ! turn;\r\n        bool winner = false;\r\n\r\n        if(board[0]==t &&board[1]==t&&board[2]==t)\r\n        {\r\n            winner = true;\r\n        }\r\n        else if(board[3]==t &&board[4]==t&&board[5]==t)\r\n        {\r\n            winner = true;\r\n        }\r\n        else if(board[6]==t &&board[7]==t&&board[8]==t)\r\n        {\r\n            winner = true;\r\n        }\r\n        else if(board[0]==t &&board[3]==t&&board[6]==t)\r\n        {\r\n            winner = true;\r\n        }\r\n        else if(board[1]==t &&board[4]==t&&board[7]==t)\r\n        {\r\n            winner = true;\r\n        }\r\n        else if(board[2]==t &&board[5]==t&&board[8]==t)\r\n        {\r\n            winner = true;\r\n        }\r\n        else if(board[0]==t &&board[4]==t&&board[8]==t)\r\n        {\r\n            winner = true;\r\n        }\r\n        else if(board[2]==t &&board[4]==t&&board[6]==t)\r\n        {\r\n            winner = true;\r\n        }\r\n\r\n        if(winner)\r\n        {\r\n            if(t==1)\r\n            {\r\n                emit Win(\"Player 1 (X) Won\",player1,address(this).balance);\r\n                player1.transfer(address(this).balance);\r\n            }\r\n            if(t==2)\r\n            {\r\n                emit Win(\"Player 2 (O) Won\",player2,address(this).balance);\r\n                player2.transfer(address(this).balance);\r\n            }\r\n\r\n            player1 = payable(address(0));\r\n            player2 = payable(address(0));\r\n            turn = false;\r\n            for(uint256 i = 0;i<9;i++)\r\n            {\r\n                board[i]=0;\r\n            }\r\n\r\n        }\r\n\r\n        if(winner==false)\r\n        {\r\n            // tie\r\n            bool isTie = true;\r\n            for(uint256 i = 0;i<9;i++)\r\n            {\r\n                if(board[i]==0)\r\n                {\r\n                    isTie = false;\r\n                }\r\n            }\r\n            \r\n            // payout\r\n            if(isTie)\r\n            {\r\n                emit Tie(\"Game is Tie\", player1,player2,address(this).balance);\r\n                player1.transfer(address(this).balance/2);\r\n                player2.transfer(address(this).balance);\r\n                \r\n                    player1 = payable(address(0));\r\n                    player2 = payable(address(0));\r\n                    turn = false;\r\n                    for(uint256 i = 0;i<9;i++)\r\n                    {\r\n                        board[i]=0;\r\n                    }\r\n            }\r\n        }\r\n\r\n    }\r\n    function escape() public payable\r\n    {\r\n        bool escaped = false;\r\n        if(msg.sender == player1 && player2 == address(0)) // changed mind\r\n        {\r\n            require(player2==address(0),\"game started\");\r\n            player1.transfer(address(this).balance);\r\n            escaped = true;\r\n        }\r\n        else if(msg.sender == player2 && player1 == address(0)) // changed mind\r\n        {\r\n            require(player1==address(0),\"game started\");\r\n            player2.transfer(address(this).balance);\r\n            escaped = true;\r\n        }\r\n        else if (turn) // player2 afk\r\n        {\r\n            require(blockNumOld+20 < block.number, \"too early\"); // ~5min afk\r\n            player1.transfer(address(this).balance);\r\n            escaped = true;\r\n        }\r\n        else // player1 afk\r\n        {\r\n            require(blockNumOld+20 < block.number, \"too early\");\r\n            player2.transfer(address(this).balance);\r\n            escaped = true;\r\n        }\r\n\r\n        if(escaped) // reset game\r\n        {\r\n            player1 = payable(address(0));\r\n            player2 = payable(address(0));\r\n            turn = false;\r\n            for(uint256 i = 0;i<9;i++)\r\n            {\r\n                board[i]=0;\r\n            }\r\n        }\r\n    }\r\n\r\n    function getBoard() external view returns (uint256 [9] memory){\r\n        return board;\r\n    }\r\n    function checkJackpot() external view returns(uint256){\r\n        return address(this).balance;\r\n    }\r\n\r\n}",
  "sourcePath": "C:\\Users\\Legend\\Desktop\\Life\\Unikas\\2metai 1semestras\\BlockChain\\github\\Ether\\contracts\\TicTacToe.sol",
  "compiler": {
    "name": "solc",
    "version": "0.8.7+commit.e28d00a7.Emscripten.clang"
  },
  "schemaVersion": "3.4.3",
  "updatedAt": "2021-12-14T19:47:30.378Z",
  "networkType": "ethereum",
  "devdoc": {
    "kind": "dev",
    "methods": {},
    "version": 1
  },
  "userdoc": {
    "kind": "user",
    "methods": {},
    "version": 1
  }
}